{
  "contractName": "C",
  "abi": [
    {
      "constant": false,
      "inputs": [
        {
          "internalType": "uint256",
          "name": "value",
          "type": "uint256"
        }
      ],
      "name": "register",
      "outputs": [],
      "payable": false,
      "stateMutability": "nonpayable",
      "type": "function"
    }
  ],
  "bytecode": "0x608060405234801561001057600080fd5b50610128806100206000396000f3fe6080604052348015600f57600080fd5b506004361060285760003560e01c8063f207564e14602d575b600080fd5b605660048036036020811015604157600080fd5b81019080803590602001909291905050506058565b005b73__Set___________________________________63831cb7396000836040518363ffffffff1660e01b8152600401808381526020018281526020019250505060206040518083038186803b15801560af57600080fd5b505af415801560c2573d6000803e3d6000fd5b505050506040513d602081101560d757600080fd5b810190808051906020019092919050505060f057600080fd5b5056fea265627a7a72315820db088098a51a8d23e8aebf20ad6ef7db301ecf09077f982d75c9d2cfd079ee8664736f6c63430005100032",
  "deployedBytecode": "0x6080604052348015600f57600080fd5b506004361060285760003560e01c8063f207564e14602d575b600080fd5b605660048036036020811015604157600080fd5b81019080803590602001909291905050506058565b005b73__Set___________________________________63831cb7396000836040518363ffffffff1660e01b8152600401808381526020018281526020019250505060206040518083038186803b15801560af57600080fd5b505af415801560c2573d6000803e3d6000fd5b505050506040513d602081101560d757600080fd5b810190808051906020019092919050505060f057600080fd5b5056fea265627a7a72315820db088098a51a8d23e8aebf20ad6ef7db301ecf09077f982d75c9d2cfd079ee8664736f6c63430005100032",
  "source": "pragma solidity >=0.4.22 <0.6.0;\n\nlibrary Set {\n  // We define a new struct datatype that will be used to\n  // hold its data in the calling contract.\n  struct Data { mapping(uint => bool) flags; }\n\n  // Note that the first parameter is of type \"storage\n  // reference\" and thus only its storage address and not\n  // its contents is passed as part of the call.  This is a\n  // special feature of library functions.  It is idiomatic\n  // to call the first parameter `self`, if the function can\n  // be seen as a method of that object.\n  function insert(Data storage self, uint value)\n      public\n      returns (bool)\n  {\n      if (self.flags[value])\n          return false; // already there\n      self.flags[value] = true;\n      return true;\n  }\n\n  function remove(Data storage self, uint value)\n      public\n      returns (bool)\n  {\n      if (!self.flags[value])\n          return false; // not there\n      self.flags[value] = false;\n      return true;\n  }\n\n  function contains(Data storage self, uint value)\n      public\n      view\n      returns (bool)\n  {\n      return self.flags[value];\n  }\n}\n\ncontract C {\n    Set.Data knownValues;\n\n    function register(uint value) public {\n        // The library functions can be called without a\n        // specific instance of the library, since the\n        // \"instance\" will be the current contract.\n        require(Set.insert(knownValues, value));\n    }\n    // In this contract, we can also directly access knownValues.flags, if we want.\n}",
  "sourcePath": "D:/Ethereum/greeter/contracts/greeter1.sol",
  "compiler": {
    "name": "solc",
    "version": "0.5.16+commit.9c3226ce.Emscripten.clang"
  },
  "schemaVersion": "3.0.22",
  "updatedAt": "2020-01-30T07:16:56.873Z",
  "devdoc": {
    "methods": {}
  },
  "userdoc": {
    "methods": {}
  }
}